:100000000C9434000C9446000C9446000C9446006A
:100010000C9446000C9446000C9446000C94460048
:100020000C9446000C9446000C9446000C94590025
:100030000C9446000C9446000C9446000C94460028
:100040000C9446000C9446000C9446000C94460018
:100050000C9446000C9446000C9446000C94460008
:100060000C9446000C94460011241FBECFEFD8E03C
:10007000DEBFCDBF21E0A0E0B1E001C01D92A23003
:10008000B207E1F70E9456000C9470000C94000037
:100090008CE08093810082E8809388008CE78093D5
:1000A000890082E080936F00789408950E94480050
:1000B000FFCF1F920F920FB60F9211248F939F9331
:1000C000809100019091010101969093010180932C
:1000D00000019F918F910F900FBE0F901F90189568
:0400E000F894FFCFC2
:00000001FF
